{
  "_format": "hh-sol-artifact-1",
  "contractName": "TokenizedBallot",
  "sourceName": "contracts/TokenizedBallot.sol",
  "abi": [
    {
      "inputs": [
        {
          "internalType": "bytes32[]",
          "name": "proposalNames",
          "type": "bytes32[]"
        },
        {
          "internalType": "address",
          "name": "_tokenContract",
          "type": "address"
        },
        {
          "internalType": "uint256",
          "name": "_referenceBlock",
          "type": "uint256"
        }
      ],
      "stateMutability": "nonpayable",
      "type": "constructor"
    },
    {
      "inputs": [],
      "name": "chairperson",
      "outputs": [
        {
          "internalType": "address",
          "name": "",
          "type": "address"
        }
      ],
      "stateMutability": "view",
      "type": "function"
    },
    {
      "inputs": [
        {
          "internalType": "uint256",
          "name": "",
          "type": "uint256"
        }
      ],
      "name": "proposals",
      "outputs": [
        {
          "internalType": "bytes32",
          "name": "name",
          "type": "bytes32"
        },
        {
          "internalType": "uint256",
          "name": "voteCount",
          "type": "uint256"
        }
      ],
      "stateMutability": "view",
      "type": "function"
    },
    {
      "inputs": [],
      "name": "referenceBlock",
      "outputs": [
        {
          "internalType": "uint256",
          "name": "",
          "type": "uint256"
        }
      ],
      "stateMutability": "view",
      "type": "function"
    },
    {
      "inputs": [],
      "name": "tokenizedContract",
      "outputs": [
        {
          "internalType": "contract ITokenizedContract",
          "name": "",
          "type": "address"
        }
      ],
      "stateMutability": "view",
      "type": "function"
    },
    {
      "inputs": [
        {
          "internalType": "uint256",
          "name": "proposal",
          "type": "uint256"
        },
        {
          "internalType": "uint256",
          "name": "amount",
          "type": "uint256"
        }
      ],
      "name": "vote",
      "outputs": [],
      "stateMutability": "nonpayable",
      "type": "function"
    },
    {
      "inputs": [
        {
          "internalType": "address",
          "name": "account",
          "type": "address"
        }
      ],
      "name": "votePower",
      "outputs": [
        {
          "internalType": "uint256",
          "name": "votePower_",
          "type": "uint256"
        }
      ],
      "stateMutability": "view",
      "type": "function"
    },
    {
      "inputs": [
        {
          "internalType": "address",
          "name": "",
          "type": "address"
        }
      ],
      "name": "votePowerSpent",
      "outputs": [
        {
          "internalType": "uint256",
          "name": "",
          "type": "uint256"
        }
      ],
      "stateMutability": "view",
      "type": "function"
    },
    {
      "inputs": [],
      "name": "winnerName",
      "outputs": [
        {
          "internalType": "bytes32",
          "name": "winnerName_",
          "type": "bytes32"
        }
      ],
      "stateMutability": "view",
      "type": "function"
    },
    {
      "inputs": [],
      "name": "winningProposal",
      "outputs": [
        {
          "internalType": "uint256",
          "name": "winningProposal_",
          "type": "uint256"
        }
      ],
      "stateMutability": "view",
      "type": "function"
    }
  ],
  "bytecode": "0x60806040523480156200001157600080fd5b5060405162000e9138038062000e918339818101604052810190620000379190620003c4565b336000806101000a81548173ffffffffffffffffffffffffffffffffffffffff021916908373ffffffffffffffffffffffffffffffffffffffff16021790555060005b83518110156200010e5760016040518060400160405280868481518110620000a757620000a66200043f565b5b602002602001015181526020016000815250908060018154018082558091505060019003906000526020600020906002020160009091909190915060008201518160000155602082015181600101555050808062000105906200049d565b9150506200007a565b508060028190555081600360006101000a81548173ffffffffffffffffffffffffffffffffffffffff021916908373ffffffffffffffffffffffffffffffffffffffff160217905550505050620004ea565b6000604051905090565b600080fd5b600080fd5b600080fd5b6000601f19601f8301169050919050565b7f4e487b7100000000000000000000000000000000000000000000000000000000600052604160045260246000fd5b620001c48262000179565b810181811067ffffffffffffffff82111715620001e657620001e56200018a565b5b80604052505050565b6000620001fb62000160565b9050620002098282620001b9565b919050565b600067ffffffffffffffff8211156200022c576200022b6200018a565b5b602082029050602081019050919050565b600080fd5b6000819050919050565b620002578162000242565b81146200026357600080fd5b50565b60008151905062000277816200024c565b92915050565b6000620002946200028e846200020e565b620001ef565b90508083825260208201905060208402830185811115620002ba57620002b96200023d565b5b835b81811015620002e75780620002d2888262000266565b845260208401935050602081019050620002bc565b5050509392505050565b600082601f83011262000309576200030862000174565b5b81516200031b8482602086016200027d565b91505092915050565b600073ffffffffffffffffffffffffffffffffffffffff82169050919050565b6000620003518262000324565b9050919050565b620003638162000344565b81146200036f57600080fd5b50565b600081519050620003838162000358565b92915050565b6000819050919050565b6200039e8162000389565b8114620003aa57600080fd5b50565b600081519050620003be8162000393565b92915050565b600080600060608486031215620003e057620003df6200016a565b5b600084015167ffffffffffffffff8111156200040157620004006200016f565b5b6200040f86828701620002f1565b9350506020620004228682870162000372565b92505060406200043586828701620003ad565b9150509250925092565b7f4e487b7100000000000000000000000000000000000000000000000000000000600052603260045260246000fd5b7f4e487b7100000000000000000000000000000000000000000000000000000000600052601160045260246000fd5b6000620004aa8262000389565b91507fffffffffffffffffffffffffffffffffffffffffffffffffffffffffffffffff8203620004df57620004de6200046e565b5b600182019050919050565b61099780620004fa6000396000f3fe608060405234801561001057600080fd5b50600436106100935760003560e01c80639e90d0d9116100665780639e90d0d914610123578063b384abef14610153578063d94c8caa1461016f578063e2ba53f01461018d578063e490e699146101ab57610093565b8063013cf08b146100985780632af3fce5146100c95780632e4176cf146100e7578063609ff1bd14610105575b600080fd5b6100b260048036038101906100ad9190610548565b6101db565b6040516100c092919061059d565b60405180910390f35b6100d161020f565b6040516100de9190610645565b60405180910390f35b6100ef610235565b6040516100fc9190610681565b60405180910390f35b61010d610259565b60405161011a919061069c565b60405180910390f35b61013d600480360381019061013891906106e3565b6102e1565b60405161014a919061069c565b60405180910390f35b61016d60048036038101906101689190610710565b6102f9565b005b6101776103e0565b604051610184919061069c565b60405180910390f35b6101956103e6565b6040516101a29190610750565b60405180910390f35b6101c560048036038101906101c091906106e3565b61041a565b6040516101d2919061069c565b60405180910390f35b600181815481106101eb57600080fd5b90600052602060002090600202016000915090508060000154908060010154905082565b600360009054906101000a900473ffffffffffffffffffffffffffffffffffffffff1681565b60008054906101000a900473ffffffffffffffffffffffffffffffffffffffff1681565b6000806000905060005b6001805490508110156102dc5781600182815481106102855761028461076b565b5b90600052602060002090600202016001015411156102c957600181815481106102b1576102b061076b565b5b90600052602060002090600202016001015491508092505b80806102d4906107c9565b915050610263565b505090565b60046020528060005260406000206000915090505481565b60006103043361041a565b905081811015610349576040517f08c379a00000000000000000000000000000000000000000000000000000000081526004016103409061086e565b60405180910390fd5b81600460003373ffffffffffffffffffffffffffffffffffffffff1673ffffffffffffffffffffffffffffffffffffffff1681526020019081526020016000206000828254610398919061088e565b9250508190555081600184815481106103b4576103b361076b565b5b906000526020600020906002020160010160008282546103d4919061088e565b92505081905550505050565b60025481565b600060016103f2610259565b815481106104035761040261076b565b5b906000526020600020906002020160000154905090565b6000600460008373ffffffffffffffffffffffffffffffffffffffff1673ffffffffffffffffffffffffffffffffffffffff16815260200190815260200160002054600360009054906101000a900473ffffffffffffffffffffffffffffffffffffffff1673ffffffffffffffffffffffffffffffffffffffff16633a46b1a8846002546040518363ffffffff1660e01b81526004016104bb9291906108c2565b602060405180830381865afa1580156104d8573d6000803e3d6000fd5b505050506040513d601f19601f820116820180604052508101906104fc9190610900565b610506919061092d565b9050919050565b600080fd5b6000819050919050565b61052581610512565b811461053057600080fd5b50565b6000813590506105428161051c565b92915050565b60006020828403121561055e5761055d61050d565b5b600061056c84828501610533565b91505092915050565b6000819050919050565b61058881610575565b82525050565b61059781610512565b82525050565b60006040820190506105b2600083018561057f565b6105bf602083018461058e565b9392505050565b600073ffffffffffffffffffffffffffffffffffffffff82169050919050565b6000819050919050565b600061060b610606610601846105c6565b6105e6565b6105c6565b9050919050565b600061061d826105f0565b9050919050565b600061062f82610612565b9050919050565b61063f81610624565b82525050565b600060208201905061065a6000830184610636565b92915050565b600061066b826105c6565b9050919050565b61067b81610660565b82525050565b60006020820190506106966000830184610672565b92915050565b60006020820190506106b1600083018461058e565b92915050565b6106c081610660565b81146106cb57600080fd5b50565b6000813590506106dd816106b7565b92915050565b6000602082840312156106f9576106f861050d565b5b6000610707848285016106ce565b91505092915050565b600080604083850312156107275761072661050d565b5b600061073585828601610533565b925050602061074685828601610533565b9150509250929050565b6000602082019050610765600083018461057f565b92915050565b7f4e487b7100000000000000000000000000000000000000000000000000000000600052603260045260246000fd5b7f4e487b7100000000000000000000000000000000000000000000000000000000600052601160045260246000fd5b60006107d482610512565b91507fffffffffffffffffffffffffffffffffffffffffffffffffffffffffffffffff82036108065761080561079a565b5b600182019050919050565b600082825260208201905092915050565b7f486173206e6f20726967687420746f20766f7465000000000000000000000000600082015250565b6000610858601483610811565b915061086382610822565b602082019050919050565b600060208201905081810360008301526108878161084b565b9050919050565b600061089982610512565b91506108a483610512565b92508282019050808211156108bc576108bb61079a565b5b92915050565b60006040820190506108d76000830185610672565b6108e4602083018461058e565b9392505050565b6000815190506108fa8161051c565b92915050565b6000602082840312156109165761091561050d565b5b6000610924848285016108eb565b91505092915050565b600061093882610512565b915061094383610512565b925082820390508181111561095b5761095a61079a565b5b9291505056fea26469706673582212209fc1affd23a5d1b617911eb83342b922e44fe86b22167c30adf960949bb04e7364736f6c63430008110033",
  "linkReferences": {},
  "deployedLinkReferences": {}
}